:100000000C9434000C9451000C9451000C94510049
:100010000C9451000C9451000C9451000C9451001C
:100020000C9451000C9451000C9451000C9451000C
:100030000C9451000C9492000C9451000C945100BB
:100040000C9451000C9451000C9451000C945100EC
:100050000C9451000C9451000C9451000C945100DC
:100060000C9451000C94510011241FBECFEFD8E026
:10007000DEBFCDBF11E0A0E0B1E0E2E9FBE002C0ED
:1000800005900D92A230B107D9F711E0A2E0B1E0DE
:1000900001C01D92A732B107E1F70E94D5020C946E
:1000A000C7050C940000399A87B1846987B9EAE7DB
:1000B000F0E080818668808380E480937C000895EE
:1000C00080917A00806480937A0080917A0084FD28
:1000D000FCCF85E38A95F1F7209178003091790083
:1000E000C9010895E1ECF0E0808188618083E2EC51
:1000F000F0E08081866080831092C50087E680935F
:10010000C40008959091C0008093C60080EA9FE0EB
:100110000197F1F708958091C00087FFFCCF80918F
:10012000C60008951F920F920FB60F9211248F935D
:100130009F93809102019091030101969093030196
:10014000809302019F918F910F900FBE0F901F908F
:10015000189587B1826287B97894EFE6F0E08081E4
:1001600081608083109280000895CF93DF93459A39
:1001700085E38A95F1F745981092850010928400E6
:1001800081E48093810086B3816286BBB59BFECFFC
:10019000109285001092840081E08093810086B3E4
:1001A000816286BB1092030110920201B59BFECFC3
:1001B000609186007091870080E090E060931E015E
:1001C00070931F0180932001909321010E948D0460
:1001D00020E030E844E554E40E94F70360931A01FC
:1001E00070931B0180931C0190931D01C0EADFE016
:1001F000FE013197F1F720E030E048E452E40E943C
:10020000F30388232CF4419A8091C00081E304C059
:1002100041988091C00080E38093C600CE01019791
:10022000F1F780EA9FE00197F1F7DF91CF91089510
:1002300023EA24BD91E095BD8AB188668AB92093EE
:10024000B0009093B100239A089587BD8093B300C6
:1002500018BC1092B400089587BD1092B30018BC6A
:100260008093B40080E29EE420E931E0F901319707
:10027000F1F70197D9F717BC1092B400089517BC95
:100280008093B30088BD1092B40088E99AE320E916
:1002900031E0F9013197F1F70197D9F71092B300E6
:1002A00018BC089588BD87BD8093B4008093B300C7
:1002B00080E197E220E931E0F9013197F1F7019708
:1002C000D9F70895429A80E29EE40197F1F70E94DF
:1002D0006000CA97AA2797FDA095BA2FBC01CD014F
:1002E0000E948D042AE43CE04AE150E40E943D056E
:1002F0000E945F0470931901609318014298089559
:100300002091040130910501280F391F3093050118
:10031000209304010895449A80E29EE40197F1F746
:100320000E9460008797AA2797FDA095BA2FBC016D
:10033000CD010E948D042FE631E840E550E40E9493
:100340003D050E945F047093150160931401449869
:1003500008952091060130910701280F391F30932D
:100360000701209306010895479A80E29EE40197D1
:10037000F1F70E94600087549040AA2797FDA0954E
:10038000BA2FBC01CD010E948D042DEC3CEC4CE059
:1003900050E40E943D050E945F0470932601609323
:1003A000250147980895CF93DF931092050110928D
:1003B0000401109207011092060110920901109297
:1003C0000801109219011092180110921501109253
:1003D00014011092260110922501C1E0D0E00E9484
:1003E00062018091040190910501209118013091E2
:1003F0001901820F931F90930501809304010E94BD
:100400008B01809106019091070120911401309198
:100410001501820F931F90930701809306010E949C
:10042000B40120910801309109018091250190913A
:100430002601280F391F30930901209308012196C6
:10044000C630D10561F6809104019091050165E007
:1004500070E00E94A005EB0170930B0160930A010C
:10046000809106019091070165E070E00E94A0056F
:10047000FB0170930D0160930C01C90165E070E010
:100480000E94A0059B0170930F0160930E01CE01A5
:1004900086509140893C910580F4CF01885092406C
:1004A000893C910550F4CB0185509140893C9105E0
:1004B00020F45A9A8BB18F7628C0CE018D58914086
:1004C000893C910580F4CF0182589140893C910587
:1004D00050F4C901845E9140893C910520F45C9AF6
:1004E0008BB18B7712C0C458D140C93CD10570F490
:1004F000EE5CF040ED52F14048F4275431402D3984
:10050000310520F45F9A8BB18B7E8BB9DF91CF914F
:100510000895FF920F931F93CF93DF9388BD80932D
:10052000B40017BC1092B300C0E0D0E08AE0F82E0F
:1005300000EA1FE00E94B5000E94D3018091C00034
:10054000F092C600C8010197F1F72196CD33D1058D
:1005500089F7DF91CF911F910F91FF900895FF923E
:100560000F931F93CF93DF9388BD8093B40017BC84
:100570001092B300C0E0D0E09AE0F92E00EA1FE04C
:100580000E94B5000E94D3018091C000F092C60085
:10059000C8010197F1F72196CF31D10589F7DF9195
:1005A000CF911F910F91FF9008958AB184698AB904
:1005B0000E9453000E9472000E94A9000E9418012C
:1005C00085E590E060E070E00E94AF0283E790E094
:1005D0000E943F0185E590E060E070E00E94AF027C
:1005E0008AE590E00E942C0185E590E060E070E0F3
:1005F0000E94AF028AE590E00E942C0185E590E020
:1006000060E070E00E9489028AE590E00E942C017F
:1006100085E590E060E070E00E94AF028AE590E03E
:100620000E942C0185E590E060E070E00E94AF023E
:1006300083E790E00E943F0185E590E060E070E094
:100640000E94AF0280E090E008952091080130916F
:100650000901280F391F30930901209308010895DB
:10066000EF92FF920F931F937C0168EE73E00E945C
:10067000B405605D60931001E0ECF0E0808106EC71
:1006800010E0D8016C9320EA3FE0C9010197F1F72F
:10069000C9010197F1F7C70164E670E00E94B40553
:1006A000CB016AE070E00E94B405805D8093110187
:1006B0009081D8018C93C9010197F1F7C901019785
:1006C000F1F7C70164E670E00E94B4056AE070E0EB
:1006D0000E94B405605D609312018081D8016C9323
:1006E000C9010197F1F7C9010197F1F7C7016AE064
:1006F00070E00E94B405805D809313019081D80161
:100700008C93C9010197F1F7C9010197F1F7E081D5
:100710008AE0F8018083C9010197F1F7C9010197C7
:10072000F1F71F910F91FF90EF900895CF93DF9312
:10073000E0ECF0E02081A6ECB0E022E42C9320EA8B
:100740003FE0E9012197F1F7E9012197F1F7E08115
:100750004DE34C93F9013197F1F7F9013197F1F736
:100760000E943003DF91CF910895CF93DF93E0ECA7
:10077000F0E02081A6ECB0E027E42C9320EA3FE0F3
:10078000E9012197F1F7E9012197F1F7E0814DE3C4
:100790004C93F9013197F1F7F9013197F1F70E9484
:1007A0003003DF91CF910895CF93DF93E0ECF0E039
:1007B0002081A6ECB0E022E52C9320EA3FE0E9019D
:1007C0002197F1F7E9012197F1F7E0814DE34C938F
:1007D000F9013197F1F7F9013197F1F70E943003F0
:1007E000DF91CF910895D4D008F481E008950CD022
:1007F0000AC102D140F0F9D030F021F45F3F19F086
:10080000EBC0511134C1EEC00FD198F39923C9F355
:100810005523B1F3951B550BBB27AA276217730706
:10082000840738F09F5F5F4F220F331F441FAA1FBA
:10083000A9F333D00E2E3AF0E0E830D0915050407A
:10084000E695001CCAF729D0FE2F27D0660F771F28
:10085000881FBB1F261737074807AB07B0E809F00A
:10086000BB0B802DBF01FF2793585F4F2AF09E3F9F
:10087000510568F0B1C0FBC05F3FECF3983EDCF37C
:10088000869577956795B795F7959F5FC9F7880F18
:10089000911D9695879597F90895E1E0660F771F6A
:1008A000881FBB1F621773078407BA0720F0621BFB
:1008B000730B840BBA0BEE1F88F7E0950895BCD03C
:1008C00088F09F5790F0B92F9927B751A0F0D1F039
:1008D000660F771F881F991F1AF0BA95C9F712C0C3
:1008E000B13081F0C3D0B1E00895C0C0672F782F38
:1008F0008827B85F39F0B93FCCF38695779567952F
:10090000B395D9F73EF490958095709561957F4F9A
:100910008F4F9F4F0895E89409C097FB3EF4909540
:100920008095709561957F4F8F4F9F4F9923A9F0C8
:10093000F92F96E9BB279395F69587957795679557
:10094000B795F111F8CFFAF4BB0F11F460FF1BC09B
:100950006F5F7F4F8F4F9F4F16C0882311F096E92E
:1009600011C0772321F09EE8872F762F05C06623DC
:1009700071F096E8862F70E060E02AF09A95660F95
:10098000771F881FDAF7880F9695879597F908954E
:10099000990F0008550FAA0BE0E8FEEF1616170690
:1009A000E807F907C0F012161306E407F50798F0F8
:1009B000621B730B840B950B39F40A2661F0232B11
:1009C000242B252B21F408950A2609F4A140A6958D
:1009D0008FEF811D811D089597F99F6780E870E072
:1009E00060E008959FEF80EC089500240A941616A5
:1009F000170618060906089500240A94121613060D
:100A0000140605060895092E0394000C11F488239A
:100A100052F0BB0F40F4BF2B11F460FF04C06F5FB6
:100A20007F4F8F4F9F4F089557FD9058440F551F8C
:100A300059F05F3F71F04795880F97FB991F61F060
:100A40009F3F79F087950895121613061406551FD7
:100A5000F2CF4695F1DF08C0161617061806991F43
:100A6000F1CF86957105610508940895E894BB2738
:100A700066277727CB0197F908950BD0C4CFB5DF50
:100A800028F0BADF18F0952309F0A6CFABCF1124D8
:100A9000EECFCADFA0F3959FD1F3950F50E0551F1D
:100AA000629FF001729FBB27F00DB11D639FAA27C3
:100AB000F00DB11DAA1F649F6627B00DA11D661F12
:100AC000829F2227B00DA11D621F739FB00DA11D33
:100AD000621F839FA00D611D221F749F3327A00DED
:100AE000611D231F849F600D211D822F762F6A2F89
:100AF00011249F5750408AF0E1F088234AF0EE0F0E
:100B0000FF1FBB1F661F771F881F91505040A9F71A
:100B10009E3F510570F060CFAACF5F3FECF3983E47
:100B2000DCF3869577956795B795F795E7959F5F81
:100B3000C1F7FE2B880F911D9695879597F908951B
:100B4000AA1BBB1B51E107C0AA1FBB1FA617B707F3
:100B500010F0A61BB70B881F991F5A95A9F780950F
:100B60009095BC01CD01089597FB092E07260AD068
:100B700077FD04D0E5DF06D000201AF4709561956A
:100B80007F4F0895F6F7909581959F4F0895F894BB
:020B9000FFCF95
:020B9200280039
:00000001FF
